{
  "contractName": "LoveChain",
  "abi": [
    {
      "anonymous": false,
      "inputs": [
        {
          "indexed": false,
          "name": "bodyID",
          "type": "string"
        }
      ],
      "name": "AddBodyInfo",
      "type": "event"
    },
    {
      "constant": true,
      "inputs": [],
      "name": "name",
      "outputs": [
        {
          "name": "_name",
          "type": "string"
        }
      ],
      "payable": false,
      "stateMutability": "pure",
      "type": "function"
    },
    {
      "constant": true,
      "inputs": [],
      "name": "symbol",
      "outputs": [
        {
          "name": "_symbol",
          "type": "string"
        }
      ],
      "payable": false,
      "stateMutability": "pure",
      "type": "function"
    },
    {
      "constant": false,
      "inputs": [
        {
          "name": "_bodyID",
          "type": "string"
        },
        {
          "name": "_bodyType",
          "type": "uint16"
        },
        {
          "name": "_bodyName",
          "type": "string"
        },
        {
          "name": "_bodySec",
          "type": "uint16"
        },
        {
          "name": "_birthDay",
          "type": "string"
        },
        {
          "name": "_linkMain",
          "type": "string"
        },
        {
          "name": "_phone",
          "type": "string"
        },
        {
          "name": "_bodyAddress",
          "type": "string"
        },
        {
          "name": "_payment",
          "type": "string"
        },
        {
          "name": "_recorder",
          "type": "string"
        },
        {
          "name": "_bodyDesc",
          "type": "string"
        }
      ],
      "name": "createBody",
      "outputs": [
        {
          "name": "",
          "type": "uint256"
        }
      ],
      "payable": false,
      "stateMutability": "nonpayable",
      "type": "function"
    },
    {
      "constant": true,
      "inputs": [],
      "name": "getAllBodyCount",
      "outputs": [
        {
          "name": "bodyCount",
          "type": "uint256"
        }
      ],
      "payable": false,
      "stateMutability": "view",
      "type": "function"
    },
    {
      "constant": true,
      "inputs": [
        {
          "name": "_bodyIndex",
          "type": "uint256"
        }
      ],
      "name": "getBodyInfo",
      "outputs": [
        {
          "name": "_bodyID",
          "type": "string"
        },
        {
          "name": "_bodyType",
          "type": "uint16"
        },
        {
          "name": "_bodyName",
          "type": "string"
        },
        {
          "name": "_bodySec",
          "type": "uint16"
        },
        {
          "name": "_birthDay",
          "type": "string"
        },
        {
          "name": "_linkMain",
          "type": "string"
        },
        {
          "name": "_phone",
          "type": "string"
        },
        {
          "name": "_bodyAddress",
          "type": "string"
        }
      ],
      "payable": false,
      "stateMutability": "view",
      "type": "function"
    },
    {
      "constant": false,
      "inputs": [
        {
          "name": "_bodyID",
          "type": "string"
        },
        {
          "name": "_bodyType",
          "type": "uint16"
        },
        {
          "name": "_bodyName",
          "type": "string"
        },
        {
          "name": "_bodySec",
          "type": "uint16"
        },
        {
          "name": "_birthDay",
          "type": "string"
        },
        {
          "name": "_linkMain",
          "type": "string"
        },
        {
          "name": "_phone",
          "type": "string"
        },
        {
          "name": "_bodyAddress",
          "type": "string"
        },
        {
          "name": "_payment",
          "type": "string"
        },
        {
          "name": "_recorder",
          "type": "string"
        },
        {
          "name": "_bodyDesc",
          "type": "string"
        }
      ],
      "name": "_createBody",
      "outputs": [
        {
          "name": "",
          "type": "uint256"
        }
      ],
      "payable": false,
      "stateMutability": "nonpayable",
      "type": "function"
    },
    {
      "constant": true,
      "inputs": [],
      "name": "SayHi",
      "outputs": [
        {
          "name": "",
          "type": "string"
        }
      ],
      "payable": false,
      "stateMutability": "pure",
      "type": "function"
    },
    {
      "constant": true,
      "inputs": [],
      "name": "SayHi2",
      "outputs": [
        {
          "name": "",
          "type": "string"
        }
      ],
      "payable": false,
      "stateMutability": "pure",
      "type": "function"
    }
  ],
  "bytecode": "0x6060604052341561000f57600080fd5b61161a8061001e6000396000f30060606040526004361061008e576000357c0100000000000000000000000000000000000000000000000000000000900463ffffffff16806306fdde03146100935780636c853afe146101215780636ce0c929146103c457806395d89b41146104525780639c6dd5d4146104e0578063ae43d3681461056e578063b6eec04714610844578063e1f630481461086d575b600080fd5b341561009e57600080fd5b6100a6610b10565b6040518080602001828103825283818151815260200191508051906020019080838360005b838110156100e65780820151818401526020810190506100cb565b50505050905090810190601f1680156101135780820380516001836020036101000a031916815260200191505b509250505060405180910390f35b341561012c57600080fd5b6103ae600480803590602001908201803590602001908080601f0160208091040260200160405190810160405280939291908181526020018383808284378201915050505050509190803561ffff1690602001909190803590602001908201803590602001908080601f0160208091040260200160405190810160405280939291908181526020018383808284378201915050505050509190803561ffff1690602001909190803590602001908201803590602001908080601f0160208091040260200160405190810160405280939291908181526020018383808284378201915050505050509190803590602001908201803590602001908080601f0160208091040260200160405190810160405280939291908181526020018383808284378201915050505050509190803590602001908201803590602001908080601f0160208091040260200160405190810160405280939291908181526020018383808284378201915050505050509190803590602001908201803590602001908080601f0160208091040260200160405190810160405280939291908181526020018383808284378201915050505050509190803590602001908201803590602001908080601f0160208091040260200160405190810160405280939291908181526020018383808284378201915050505050509190803590602001908201803590602001908080601f0160208091040260200160405190810160405280939291908181526020018383808284378201915050505050509190803590602001908201803590602001908080601f01602080910402602001604051908101604052809392919081815260200183838082843782019150505050505091905050610b53565b6040518082815260200191505060405180910390f35b34156103cf57600080fd5b6103d7610b79565b6040518080602001828103825283818151815260200191508051906020019080838360005b838110156104175780820151818401526020810190506103fc565b50505050905090810190601f1680156104445780820380516001836020036101000a031916815260200191505b509250505060405180910390f35b341561045d57600080fd5b610465610bbc565b6040518080602001828103825283818151815260200191508051906020019080838360005b838110156104a557808201518184015260208101905061048a565b50505050905090810190601f1680156104d25780820380516001836020036101000a031916815260200191505b509250505060405180910390f35b34156104eb57600080fd5b6104f3610bff565b6040518080602001828103825283818151815260200191508051906020019080838360005b83811015610533578082015181840152602081019050610518565b50505050905090810190601f1680156105605780820380516001836020036101000a031916815260200191505b509250505060405180910390f35b341561057957600080fd5b61058f6004808035906020019091905050610c42565b60405180806020018961ffff1661ffff168152602001806020018861ffff1661ffff1681526020018060200180602001806020018060200187810387528f818151815260200191508051906020019080838360005b838110156105ff5780820151818401526020810190506105e4565b50505050905090810190601f16801561062c5780820380516001836020036101000a031916815260200191505b5087810386528d818151815260200191508051906020019080838360005b8381101561066557808201518184015260208101905061064a565b50505050905090810190601f1680156106925780820380516001836020036101000a031916815260200191505b5087810385528b818151815260200191508051906020019080838360005b838110156106cb5780820151818401526020810190506106b0565b50505050905090810190601f1680156106f85780820380516001836020036101000a031916815260200191505b5087810384528a818151815260200191508051906020019080838360005b83811015610731578082015181840152602081019050610716565b50505050905090810190601f16801561075e5780820380516001836020036101000a031916815260200191505b50878103835289818151815260200191508051906020019080838360005b8381101561079757808201518184015260208101905061077c565b50505050905090810190601f1680156107c45780820380516001836020036101000a031916815260200191505b50878103825288818151815260200191508051906020019080838360005b838110156107fd5780820151818401526020810190506107e2565b50505050905090810190601f16801561082a5780820380516001836020036101000a031916815260200191505b509e50505050505050505050505050505060405180910390f35b341561084f57600080fd5b610857611086565b6040518082815260200191505060405180910390f35b341561087857600080fd5b610afa600480803590602001908201803590602001908080601f0160208091040260200160405190810160405280939291908181526020018383808284378201915050505050509190803561ffff1690602001909190803590602001908201803590602001908080601f0160208091040260200160405190810160405280939291908181526020018383808284378201915050505050509190803561ffff1690602001909190803590602001908201803590602001908080601f0160208091040260200160405190810160405280939291908181526020018383808284378201915050505050509190803590602001908201803590602001908080601f0160208091040260200160405190810160405280939291908181526020018383808284378201915050505050509190803590602001908201803590602001908080601f0160208091040260200160405190810160405280939291908181526020018383808284378201915050505050509190803590602001908201803590602001908080601f0160208091040260200160405190810160405280939291908181526020018383808284378201915050505050509190803590602001908201803590602001908080601f0160208091040260200160405190810160405280939291908181526020018383808284378201915050505050509190803590602001908201803590602001908080601f0160208091040260200160405190810160405280939291908181526020018383808284378201915050505050509190803590602001908201803590602001908080601f01602080910402602001604051908101604052809392919081815260200183838082843782019150505050505091905050611092565b6040518082815260200191505060405180910390f35b610b18611335565b6040805190810160405280600981526020017f4c6f7665436861696e0000000000000000000000000000000000000000000000815250905090565b6000610b688c8c8c8c8c8c8c8c8c8c8c611092565b90509b9a5050505050505050505050565b610b81611335565b6040805190810160405280601281526020017f48697e32204d79204c6f7665436861696e210000000000000000000000000000815250905090565b610bc4611335565b6040805190810160405280600381526020017f4c43430000000000000000000000000000000000000000000000000000000000815250905090565b610c07611335565b6040805190810160405280600e81526020017f48697e204c6f7665436861696e21000000000000000000000000000000000000815250905090565b610c4a611335565b6000610c54611335565b6000610c5e611335565b610c66611335565b610c6e611335565b610c76611335565b6000808a815481101515610c8657fe5b90600052602060002090600b02019050806000018054600181600116156101000203166002900480601f016020809104026020016040519081016040528092919081815260200182805460018160011615610100020316600290048015610d2e5780601f10610d0357610100808354040283529160200191610d2e565b820191906000526020600020905b815481529060010190602001808311610d1157829003601f168201915b505050505098508060010160009054906101000a900461ffff169750806002018054600181600116156101000203166002900480601f016020809104026020016040519081016040528092919081815260200182805460018160011615610100020316600290048015610de25780601f10610db757610100808354040283529160200191610de2565b820191906000526020600020905b815481529060010190602001808311610dc557829003601f168201915b505050505096508060030160009054906101000a900461ffff169550806004018054600181600116156101000203166002900480601f016020809104026020016040519081016040528092919081815260200182805460018160011615610100020316600290048015610e965780601f10610e6b57610100808354040283529160200191610e96565b820191906000526020600020905b815481529060010190602001808311610e7957829003601f168201915b50505050509450806005018054600181600116156101000203166002900480601f016020809104026020016040519081016040528092919081815260200182805460018160011615610100020316600290048015610f355780601f10610f0a57610100808354040283529160200191610f35565b820191906000526020600020905b815481529060010190602001808311610f1857829003601f168201915b50505050509350806006018054600181600116156101000203166002900480601f016020809104026020016040519081016040528092919081815260200182805460018160011615610100020316600290048015610fd45780601f10610fa957610100808354040283529160200191610fd4565b820191906000526020600020905b815481529060010190602001808311610fb757829003601f168201915b50505050509250806007018054600181600116156101000203166002900480601f0160208091040260200160405190810160405280929190818152602001828054600181600116156101000203166002900480156110735780601f1061104857610100808354040283529160200191611073565b820191906000526020600020905b81548152906001019060200180831161105657829003601f168201915b5050505050915050919395975091939597565b60008080549050905090565b600061109c611349565b6000610160604051908101604052808f81526020018e61ffff1681526020018d81526020018c61ffff1681526020018b81526020018a81526020018981526020018881526020018781526020018681526020018581525091506000805480600101828161110991906113e2565b91600052602060002090600b02016000849091909150600082015181600001908051906020019061113b929190611414565b5060208201518160010160006101000a81548161ffff021916908361ffff160217905550604082015181600201908051906020019061117b929190611414565b5060608201518160030160006101000a81548161ffff021916908361ffff16021790555060808201518160040190805190602001906111bb929190611414565b5060a08201518160050190805190602001906111d8929190611414565b5060c08201518160060190805190602001906111f5929190611414565b5060e0820151816007019080519060200190611212929190611414565b50610100820151816008019080519060200190611230929190611414565b5061012082015181600901908051906020019061124e929190611414565b5061014082015181600a01908051906020019061126c929190611414565b50505090508063ffffffff168114151561128557600080fd5b7fc7e7ed70fb34b9ce2817298fb12553b94e68a6bb8ae66aaa1a3f6e1708db16518e6040518080602001828103825283818151815260200191508051906020019080838360005b838110156112e75780820151818401526020810190506112cc565b50505050905090810190601f1680156113145780820380516001836020036101000a031916815260200191505b509250505060405180910390a180925050509b9a5050505050505050505050565b602060405190810160405280600081525090565b6101606040519081016040528061135e611494565b8152602001600061ffff168152602001611376611494565b8152602001600061ffff16815260200161138e611494565b815260200161139b611494565b81526020016113a8611494565b81526020016113b5611494565b81526020016113c2611494565b81526020016113cf611494565b81526020016113dc611494565b81525090565b81548183558181151161140f57600b0281600b02836000526020600020918201910161140e91906114a8565b5b505050565b828054600181600116156101000203166002900490600052602060002090601f016020900481019282601f1061145557805160ff1916838001178555611483565b82800160010185558215611483579182015b82811115611482578251825591602001919060010190611467565b5b5090506114909190611581565b5090565b602060405190810160405280600081525090565b61157e91905b8082111561157a57600080820160006114c791906115a6565b6001820160006101000a81549061ffff02191690556002820160006114ec91906115a6565b6003820160006101000a81549061ffff021916905560048201600061151191906115a6565b60058201600061152191906115a6565b60068201600061153191906115a6565b60078201600061154191906115a6565b60088201600061155191906115a6565b60098201600061156191906115a6565b600a8201600061157191906115a6565b50600b016114ae565b5090565b90565b6115a391905b8082111561159f576000816000905550600101611587565b5090565b90565b50805460018160011615610100020316600290046000825580601f106115cc57506115eb565b601f0160209004906000526020600020908101906115ea9190611581565b5b505600a165627a7a72305820d130cce0469ec2d087004b685a5576fdef790aebb4d5661df031ae238ec414640029",
  "source": "pragma solidity ^0.4.18;\n\n//import \"./Ownable.sol\";\n//import \"./ERC721.sol\";\n\n/// 为应用提供主合约逻辑，主要数据结构及方法\n//contract LoveChain is Ownable, ERC721 {\ncontract LoveChain {\n\n    /*** 数据 ***/\n    \n    // 人物的数据结构\n\tstruct BodyInfo {\n\t\tstring bodyID;\t\t\t\t// 身份证号码、个人唯一ID\n\t\tuint16 bodyType;\t\t\t// 患病类型\n\t\tstring bodyName;\t\t\t// 名字\n\t\tuint16 bodySec;\t\t\t\t// 性别\n\t\tstring birthDay;\t\t\t// 生日\n\t\tstring linkMain;\t\t\t// 联系人\n\t\tstring phone;\t\t\t\t// 联系电话\n\t\tstring bodyAddress;\t\t\t\t// 联系地址\n\t\tstring payment;\t\t\t\t// 收款信息\n\t\tstring recorder;\t\t\t// 录入人\n\t\tstring bodyDesc;\t\t\t// 简介\n\t}\n\t\t\n\t// 保存所有人员信息\n\tBodyInfo[] bodyInfos;\n\t\n\t/*** 事件 ***/\n\t\n\t// 每当有新数据被添加时，就会触发该事件\n\tevent AddBodyInfo(string bodyID);\n\t\n\t/*** 公有方法 ***/\n\t\n\t// 定义项目名称\n\tfunction name() public pure returns (string _name){\n\t\treturn \"LoveChain\";\n\t}\n\t\n\t// 定义代币符号\n\tfunction symbol() public pure returns (string _symbol){\n\t\treturn \"LCC\";\n\t}\n\t\n\t// 创建一条新的信息\n\tfunction createBody(string _bodyID, uint16 _bodyType, string _bodyName, uint16 _bodySec, string _birthDay, string _linkMain\n\t\t\t\t\t\t, string _phone, string _bodyAddress, string _payment, string _recorder, string _bodyDesc) public returns (uint256) {\n\t\treturn _createBody(_bodyID, _bodyType, _bodyName, _bodySec, _birthDay, _linkMain, _phone, _bodyAddress, _payment, _recorder, _bodyDesc);\n\t}\n\t\n\t// 返回所有人员总数\n\tfunction getAllBodyCount() external view returns(uint256 bodyCount){\n        bodyCount = bodyInfos.length;\n    }\n    \n    // 获取指定人员的详细信息\n\tfunction getBodyInfo(uint256 _bodyIndex) external view returns (\n\t\t\t\t\t\t\t\t\t\t\t\t\tstring _bodyID,\n\t\t\t\t\t\t\t\t\t\t\t\t\tuint16 _bodyType,\n\t\t\t\t\t\t\t\t\t\t\t\t\tstring _bodyName,\n\t\t\t\t\t\t\t\t\t\t\t\t\tuint16 _bodySec,\n\t\t\t\t\t\t\t\t\t\t\t\t\tstring _birthDay,\n\t\t\t\t\t\t\t\t\t\t\t\t\tstring _linkMain,\n\t\t\t\t\t\t\t\t\t\t\t\t\tstring _phone,\n\t\t\t\t\t\t\t\t\t\t\t\t\tstring _bodyAddress) {\n        BodyInfo storage bodyInfo = bodyInfos[_bodyIndex];\n        _bodyID = bodyInfo.bodyID;\n        _bodyType = bodyInfo.bodyType;\n        _bodyName = bodyInfo.bodyName;\n        _bodySec = bodyInfo.bodySec;\n        _birthDay = bodyInfo.birthDay;\n        _linkMain = bodyInfo.linkMain;\n        _phone = bodyInfo.phone;\n        _bodyAddress = bodyInfo.bodyAddress;\n        \n    }\n\t\n\t// 获取指定人员的详细信息\n    \t\n\t/*** 内部方法 ***/\n\t\n\t// 使用指定的属性，创建一条信息，并保存起来\n\tfunction _createBody(string _bodyID, uint16 _bodyType, string _bodyName, uint16 _bodySec, string _birthDay, string _linkMain\n\t\t\t\t\t\t, string _phone, string _bodyAddress, string _payment, string _recorder, string _bodyDesc) public returns (uint256) {\n\t\tBodyInfo memory _bodyInfo = BodyInfo({\n            bodyID: _bodyID,\n            bodyType: _bodyType,\n            bodyName: _bodyName,\n            bodySec: _bodySec,\n            birthDay: _birthDay,\n            linkMain: _linkMain,\n            phone: _phone,\n            bodyAddress: _bodyAddress,\n            payment: _payment,\n            recorder: _recorder,\n            bodyDesc: _bodyDesc\n        });\n        uint256 newBodyId = bodyInfos.push(_bodyInfo);\n\n        // 确保新id不过超过40多亿的上限（虽然可能性非常低）\n        require(newBodyId == uint256(uint32(newBodyId)));\n\n        // 触发添加新消息事件\n        AddBodyInfo(_bodyID);\n\n        return newBodyId;\n    }\n    \n    /// 测试函数\n    function SayHi() pure public returns (string) {\n\t\treturn \"Hi~ LoveChain!\";\n\t}\n\t\n\tfunction SayHi2() pure public returns (string) {\n\t\treturn \"Hi~2 My LoveChain!\";\n\t}\n}\n",
  "sourcePath": "/Users/guojh/work/guojh/blockchain/project/love_chain/src/love_chain/contracts/LoveChain.sol",
  "compiler": {
    "name": "solc",
    "version": "0.4.19+commit.c4cbbb05.Emscripten.clang"
  },
  "schemaVersion": "2.0.0",
  "updatedAt": "2018-04-28T18:02:24.932Z"
}